:020000040000FA
:1000000000000320290400003B0400003D04000020
:100010003F04000041040000430400000000000011
:100020000000000000000000000000004504000087
:100030004704000000000000490400003D56000095
:100040004D04000051040000550400005904000054
:100050005D04000061040000650400006904000004
:100060006D040000710400007504000079040000B4
:100070007D04000081040000850400008904000064
:100080008D0400001105000011050000110500009D
:100090001105000011050000110500001105000008
:1000A0009104000095040000990400009D040000E4
:1000B000A1040000A5040000A9040000AD04000094
:1000C000B1040000B5040000B9040000BD04000044
:1000D000C1040000C5040000C904000011050000AF
:1000E00011050000110500001105000011050000B8
:1000F00011050000110500001105000011050000A8
:10010000E9240000110500001105000011050000A0
:100110001105000011050000110500001105000087
:100120001105000011050000110500001105000077
:100130001105000011050000110500001105000067
:1001400011050000CD040000D1040000D50400001A
:10015000D9040000DD0400001105000011050000B5
:100160001105000011050000E1040000E504000095
:10017000E9040000ED040000F1040000F5040000B3
:10018000F9040000FD040000010500000505000061
:10019000090500000D050000110500001105000013
:1001A00011050000110500001105000011050000F7
:1001B00011050000110500001105000011050000E7
:1001C00011050000110500001105000011050000D7
:1001D00011050000110500001105000011050000C7
:1003F000110500001105000011050000FFFFFFFFBF
:020000040000FA
:10040000FFFFFFFFFFFFFFFFFFFFFFFFFEFFFFFFFD
:020000040000FA
:10041000DFF80CD000F0E8FC00480047257200002F
:100420000000032040BA704772B63A483A4901606A
:100430003A48804762B63A480047FEE7FEE7FEE7E3
:10044000FEE7FEE7FEE7FEE7FEE7FEE7354800478A
:10045000354800473548004735480047354800478C
:10046000354800473548004735480047354800477C
:10047000354800473548004735480047354800476C
:10048000354800473548004735480047354800475C
:10049000354800473548004735480047354800474C
:1004A000354800473548004735480047354800473C
:1004B000354800473548004735480047354800472C
:1004C000354800473548004735480047354800471C
:1004D000354800473548004735480047354800470C
:1004E00035480047354800473448004733480047FF
:1004F00032480047314800473048004730480047FD
:1005000030480047304800473048004730480047EF
:10051000FEE7000008ED00E0000000004D5600007E
:100520001104000011050000110500001105000074
:100530001105000011050000110500001105000063
:100540001105000011050000110500001105000053
:100550001105000011050000110500001105000043
:100560001105000011050000110500001105000033
:100570001105000011050000110500001105000023
:10058000110500009D56000011050000C156000035
:1005900011050000E5560000110500000957000094
:1005A00011050000110500002D5700001105000085
:1005B0005157000011050000110500001105000051
:1005C000DD260000110500001105000011050000E6
:1005D0001105000000000000000000000000000005
:1005E00000000000000000002DE9F05F054600203B
:1005F00092469B4688460646814640241BE0284694
:1006000041464746224600F004FB53465A46C01A6C
:10061000914110D311461846224600F0EBFA2D1AEC
:1006200067EB01084F4622460120002100F0E2FA64
:1006300017EB00094E41201EA4F10104DFDC4846FF
:1006400031462A464346BDE8F09F2DE9F04100249B
:10065000061B254671F1000605DA01240027D0EBC0
:10066000070067EB0101161E73F1000605DA00278B
:10067000D2EB0702012567EB0303FFF7B5FF8646C0
:100680000E4617469C46AC4204D00025D0EB050E22
:1006900065EB010624B10020D2EB000760EB030CF0
:1006A000704631463A466346BDE8F08140EA0103B0
:1006B0009B0703D009E008C9121F08C0042AFAD218
:1006C00003E011F8013B00F8013B521EF9D27047DC
:1006D000D2B201E000F8012B491EFBD27047002284
:1006E000F6E710B513460A4604461946FFF7F0FF31
:1006F000204610BD30B505462A460B4612F8010BC0
:1007000013F8014B08B1A042F8D01CB1002802D068
:100710006D1CF1E7284630BD421C10F8011B002972
:10072000FBD1801A70472DE9F05F93460F46804653
:100730000446002605F03CFAD0F80090824614F8F2
:10074000015B2DB100F088FA0068405DC007F6D16A
:100750002B2D02D02D2D1AD0641E0021CAF80010B6
:100760005A463946204600F07BFA014627B13868E0
:10077000A04201D1C7F80080DAF80000022809D0B1
:10078000CAF80090700505D54842BDE8F09F46F4D0
:100790008066E2E70846F8E72DE9FE4F804681EAE9
:1007A0000300C00F0C46009021F0004123F00045EB
:1007B000B8EB0200A94105D24046214690461C46AE
:1007C0000B46024623F00040104347D0270DC7F3E5
:1007D0000A00C3F30A510290401A019040286BDAD4
:1007E000C3F3130040F4801B0098924620B100230D
:1007F000D2EB030A63EB0B0B01985946C0F14002A0
:10080000504600F0F7F906460D4650465946019A03
:1008100000F00FFA10EB08006141002487EA115242
:1008200084EAE7731A4340D0009A62B3019A012A1E
:100830004FEA075215DC001B61EB02014FF000424A
:1008400002EA0752CDE90042001C41F58011324610
:100850002B4600F063FA03B0BDE8F08F4046214616
:10086000F9E7001B61EB0201001C41F58013001841
:100870005B412018A2F5001747EB030140EAD57051
:10088000B6196D4111E06D084FEA360645EAC075AC
:100890004FEA0752001B61EB0201001C41F5801179
:1008A00049084FEA30000019514132462B4603B047
:1008B000BDE8F04F00F023BA009801224000002369
:1008C000D0EB020263EBE073009821464FEAE0743C
:1008D000B8EB000061EB0401E9E783F000435BE75C
:1008E00081F0004158E72DE9FE4F81EA030404F04E
:1008F000004421F0004100944FF0000B23F000432E
:1009000050EA01045ED052EA03045BD0C3F30A54F8
:10091000C1F30A552C44A4F2F3340194A0FB025411
:10092000C1F3130141F48011C3F3130343F48013A3
:1009300001FB024400FB034E840A970A44EA8154F7
:1009400047EA8357A4FB076802958D0A05FB0785D4
:100950004FEA932C04FB0C542705029D4FEA0658DE
:1009600047EA1637B5EB08056EEB070C870E920EBB
:1009700047EA811742EA8312A7FB0201B6EB0B019B
:1009800064EB00042B0D43EA0C335E1844EB1C505F
:10099000DA465146E7FB0201C5F313044FEA0B3375
:1009A00043EA14534FEA0432019C43EA0603A4F1DC
:1009B0000C040294009CCDE900B400F0AFF903B040
:1009C000BDE8F08F00200146F9E72DE9F04D81EAFE
:1009D000030404F0004B21F0004514464FF0000AD8
:1009E00023F0004150EA050220D054EA01021DD054
:1009F000C5F30A570246C5F31303C1F31300C1F34D
:100A00000A5640F4801543F48013A7EB0608101B28
:100A1000D64608F2FD3873EB050002D308F1010851
:100A200001E092185B41B8F1000F03DA00200146A3
:100A3000BDE8F08D00204FF48011064684460EE09C
:100A4000171B73EB050705D3121B63EB0503064366
:100A50004CEA010C49084FEA300092185B4150EA19
:100A60000107EDD152EA030012D082EA040083EAC2
:100A70000501084305D0101BAB4106D2012200231B
:100A800006E000224FF0004302E06FF00102531035
:100A90001AEB06004CEB085110EB0A0041EB0B017E
:100AA000BDE8F04D00F02BB90EB5C10F80EAE07043
:100AB0000844CA07002140F233438DE80E000A467D
:100AC0000B4600F02BF903B000BD0EB540F23341E8
:100AD00002910021CDE900110A460B4600F01EF9F3
:100AE00003B000BD3EB5CA17CB0F002450405140A3
:100AF000C0186141DA0740F233430094CDE9012385
:100B00002246234600F00AF903B030BD70B5C1F3A8
:100B10000A5201F000450024C1F3130140F2FF33F3
:100B200041F480119A4201DA002070BD40F2334353
:100B30009A42A2F2334203DC524200F06AF800E02B
:100B400090402C43F1D0404270BD70B5C1F30A52C1
:100B500001F000450024C1F3130140F2FF3341F4DA
:100B600080119A4202DA0020014670BD40F2334300
:100B70009A42A2F2334203DC524200F04AF801E00A
:100B800000F038F82C43F0D00023D0EB030063EBE7
:100B9000010170BD30B5041E71F1000404DB4FF09B
:100BA0000044404264EB0101141E73F1000405DBB4
:100BB0001C464FF00043524263EB04038B4208BFD4
:100BC000824230BD30B5041E71F1000404DB4FF0E9
:100BD0000044404264EB0101141E73F1000405DB84
:100BE0001C464FF00043524263EB0403994208BF96
:100BF000904230BD202A04DB203A00FA02F10020A6
:100C000070479140C2F1200320FA03F3194390404A
:100C10007047202A04DB203A21FA02F000217047B5
:100C200021FA02F3D040C2F1200291400843194654
:100C30007047202A06DBCB17203A41FA02F043EA3C
:100C4000E07306E041FA02F3D040C2F12002914085
:100C50000843194670470000004870477C92000026
:100C60002DE9F05F82460078002715468B460AF191
:100C70000104B946302801D09DB113E014F8010BEE
:100C80000127782803D0582801D045B10AE00DB1DA
:100C9000102D07D10027102514F8010B02E00825BC
:100CA00000E00A250026B0460EE005FB080005FB23
:100CB00006F1012701EB10461FFA80F8B6F5803FD8
:100CC00000D3B94614F8010B294600F09FF800281C
:100CD000EBDABBF1000F05D00FB1641E00E0544603
:100CE000CBF80040B9F1000F06D004F061FF0221FB
:100CF0000160C81EBDE8F09F48EA0640FAE710B55B
:100D0000141E73F1000408DA401C41F1000192182E
:100D10005B411A4301D120F0010010BD2DE9F04DD7
:100D200092469B4611B1B1FA81F202E0B0FA80F22C
:100D300020329046FFF75EFF04460F4640EA0A0065
:100D400041EA0B0153465A46084313D0114653EA71
:100D5000010019D0C8F140025046FFF75AFF05467E
:100D60000E46504659464246FFF744FF084305D019
:100D7000012004E020463946BDE8F08D00200543FF
:100D800046EAE0762C4337430A986305E40AA0EB71
:100D900008000022FD0A44EA47540A3002D5002028
:100DA0000146E9E7010510196941DDE90845001927
:100DB0006941BDE8F04DA2E770B521F0004303435F
:100DC0000CD0C1F30A550024D5EB040564EB0403F1
:100DD000D617AD1AB34102DB0020014670BD2018C2
:100DE00041EB025170BD0000064C074D06E0E06883
:100DF00040F0010394E8070098471034AC42F6D362
:100E0000FFF70AFB20930000409300003A2800D22D
:100E1000303820F02002412A01D3A2F13700884265
:100E200001D34FF0FF3070472DE9F04D00231A46F3
:100E30001B1A8A4103DB00200146BDE8F08DC1F397
:100E40000A52C1F3130141F480154FF0000BD10792
:100E500002D100186D41521E0027044640F2FF11D6
:100E6000384601EB620A3E468046024600204FF4B7
:100E70008011FFF7CEFEC2197141BB1846EB01008D
:100E8000B4EB030C75EB000C04D3E41A65EB00051E
:100E900017460E46241908F101006D41804634289A
:100EA000E3DDF91946EB0600091BA84103D24FF018
:100EB000FF32134601E0002213461BEB070046EB0E
:100EC0000A51BDE8F04DFFF71ABF000010B500BF92
:100ED0004FF092701149486400BF114800F0CEFBFA
:100EE00010481149086000BF0D491439C87901F153
:100EF0000802002100F0B0F8094B143BDA78997829
:100F0000587800F01DFC0648083800F09DFC0448A5
:100F10001438C0690549086010BD00000080044015
:100F2000948F000080F0FA021400002000000020DE
:100F300010B500F041F90446234601224FF4E13197
:100F4000014800F063FE10BD00A0064008B5002077
:100F50000090BDF8000020F00300C01C0090BDF818
:100F6000000020F0400040300090BDF8000020F468
:100F7000E06000F580600090344800F0BBF8032288
:100F80001021334801F08AFB03221121304801F07F
:100F900085FB2E48C01C00F0ADF86A4600212D48A4
:100FA00001F04CFB6A4601212A4801F047FB6A46E2
:100FB0000221284801F042FB6A460321254801F03E
:100FC0003DFB6A460421234801F038FB6A460521AF
:100FD000204801F033FBBDF8000020F00300C01CE6
:100FE0000090BDF8000020F0400040300090BDF8B7
:100FF000000020F4E06000F5807000906A461A213D
:10100000144801F01BFB6A461621114801F016FB3B
:101010006A4615210E4801F011FBBDF8000020F0D2
:101020000300801C0090BDF8000020F040000090FC
:10103000BDF8000020F4E06000F5807000906A4682
:101040000621044801F0FAFA08BD00000A00381031
:1010500000A0044000D0044070B506460D4614467A
:1010600004B105E040F254620CA119A004F07EFD29
:10107000304600F039FB2146284600F0ADFB16480B
:10108000007820F0C0001449087000BF1248807931
:10109000C0F381000328F9D1002070BD2E2E2F2E21
:1010A0002E2F2E2E2F2E2E2F2E2E2F646576696337
:1010B00065732F4D4B36344631322F647269766535
:1010C00072732F66736C5F636C6F636B2E630000CB
:1010D000636F6E666967000000400640044A02EBD9
:1010E00010410A68012383401A430A6070470000D8
:1010F00000700440044A02EB10410A680123834057
:101100001A430A60704700000070044070B504463E
:1011100004B105E040F2433210A11DA004F026FD09
:101120000025607800F01F0005431B480571A17879
:10113000407961F304001849487108460079217824
:1011400041F0400108431449087100BF12488079FA
:1011500000F040000028F9D070BD00002E2E2F2E88
:101160002E2F2E2E2F2E2E2F2E2E2F646576696376
:1011700065732F4D4B36344631322F647269766574
:1011800072732F66736C5F636C6F636B2E6300000A
:10119000636F6E66696700000040064010B500F09E
:1011A00013FA0449496CC1F30361491CB0FBF1F027
:1011B00010BD00000080044010B500F005FA04499D
:1011C000496C012202EB1171B0FBF1F010BD00007F
:1011D0000080044010B515480068C0F3814020B17C
:1011E00002280DD003281BD117E000F0A3F9B0F5B9
:1011F000004F02D14FF4004000E00020044611E00F
:101200000B48006800B105E040F27B1209A116A06E
:1012100004F0ACFC0648046804E04FF47A7401E082
:10122000002400BF00BF204610BD00000070044035
:10123000180000202E2E2F2E2E2F2E2E2F2E2E2F4A
:101240002E2E2F646576696365732F4D4B363446B9
:1012500031322F647269766572732F66736C5F63C7
:101260006C6F636B2E630000675F7874616C333260
:10127000467265710000000010B500F069F8044680
:1012800034B100F0A1F9B4EBD00F01D8204610BD65
:101290000020FCE72DE9F04100F0F2F8044614B913
:1012A0002046BDE8F08116480078C0F3C205EC4046
:1012B00013484078C0F301171148007B00F0030683
:1012C00007B10EB1022E19D1082D14D2DFE805F0B6
:1012D0000405060708090B0F00BF00BF00BF00BFD1
:1012E00000BF640909E01420B4FBF0F405E00C2011
:1012F000B4FBF0F401E0002400BF00BF2046D0E7BB
:101300000040064070B51048407800F0020020B957
:101310000D48807900F0200008B1002070BD00F079
:1013200017F804460CB92046F8E70748C078C0F320
:1013300041150548C078C609044800EB850030F81F
:1013400016006043EAE70000004006402C8F0000D2
:1013500010B505488079C0F3001010B9FFF79AFF67
:1013600010BD02480068FBE7004006400C0000206A
:1013700070B50546142D55D2DFE805F00A0B151F90
:10138000295433373B54543F43474B5454544F51E3
:1013900000BF00F019F92649496C012202EB1171D6
:1013A000B0FBF1F440E000F00FF92149496CC1F3C2
:1013B0000361491CB0FBF1F436E000F005F91C496B
:1013C000496CC1F30351491CB0FBF1F42CE000F06F
:1013D000FBF81749496CC1F30341491CB0FBF1F418
:1013E00022E000F02FF904461EE0FFF7F3FE04466A
:1013F0001AE000F09FF8044616E0FFF73DFF0446B0
:1014000012E000F019F804460EE0FFF77BFF0446F7
:101410000AE000F0F7F8044606E0064C04E04FF45A
:101420007A7401E0002400BF00BF204670BD0000B8
:1014300000800440006CDC0210B50548007800F024
:10144000020008B9002010BD00F004F8FBE700001E
:10145000004006400748807900F0010010B90648B6
:10146000006870470348007AC0F3420103480068EF
:10147000C840F6E7004006400C00002010000020A5
:1014800010B51448007B00F0030020B101280ED0F5
:1014900002281AD117E01048006800B104E0D622F3
:1014A0000EA11BA004F062FB0B4804680FE01B4870
:1014B000006800B104E0DB2208A119A004F056FB8B
:1014C0001648046803E01A4C01E0002400BF00BF86
:1014D000204610BD00400640140000202E2E2F2E66
:1014E0002E2F2E2E2F2E2E2F2E2E2F6465766963F3
:1014F00065732F4D4B36344631322F6472697665F1
:1015000072732F66736C5F636C6F636B2E63000086
:10151000675F7874616C3046726571001800002056
:10152000675F7874616C3332467265710000000049
:10153000006CDC0210B50A48007800F0800060B151
:101540000848006800B105E040F2671206A113A048
:1015500004F00CFB0348006810BD0020FCE700000D
:1015600000500640140000202E2E2F2E2E2F2E2E3F
:101570002F2E2E2F2E2E2F646576696365732F4DC7
:101580004B36344631322F647269766572732F663A
:10159000736C5F636C6F636B2E630000675F7874BE
:1015A000616C304672657100014649F697029142BE
:1015B00001D8002005E0034A914201D8012000E053
:1015C0000220704700127A0010B50D498979C1F3E5
:1015D000810444B1012C09D0022C0AD0032C0BD178
:1015E00000F010F80AE0FFF78DFE07E0FFF732FF8A
:1015F00004E0FFF745FF01E0002000BF00BF10BD81
:101600000040064010B50C48807900F0400008B951
:10161000002010BD00F012F804460748007900F0E1
:101620001F00401CB4FBF0F40348407900F01F0099
:10163000183044432046ECE70040064010B5FFF761
:101640001FFF10BD10B50B494968C1F3014121B11D
:10165000012905D0032908D105E0FFF753FE06E074
:10166000FFF7D0FF03E0044801E0002000BF00BF07
:1016700010BD000000800440006CDC0270B5044620
:101680002068FFF791FF054615482279017821F07F
:101690000F011143017000BF00BF017821F0A001CC
:1016A000A2791143017000BF0E48407820F03C0041
:1016B000302101EA0511084361790843094948705E
:1016C000607958B10648007800F0800030B100BF62
:1016D0000448807900F002000028F9D070BD0000B5
:1016E000005006400040064010B501461348007BFC
:1016F00000F00300884201D0012200E000220F48E0
:10170000007B61F301000D4C207359B920464078ED
:1017100000F0040030B100BF0848807900F00200FA
:101720000028F9D03AB140F2DC5300E000BF181EA7
:10173000A3F10103FAD1002010BD000000400640D3
:10174000F0B5034623488079C0F3810421488079AD
:1017500000F001051F48007AC0F34206B2421FD0D4
:10176000012D13D1012C04D01A48007800F002009A
:1017700060B11848407820F00100164F787000BF23
:101780001448807900F001000028F9D11148007A4E
:1017900020F02F000E2707EA420738430D4F38721A
:1017A0000C48407861F300000A4F787038460078A2
:1017B00020F0030018433870012C02D003F002001F
:1017C00030B100BF0348807900F001008842F9D1B0
:1017D0000020F0BD0040064070B505460C46194893
:1017E000407820F00200174948700846007820F041
:1017F000C40040F08000087000BF1248807900F0FB
:101800001C000828F9D10F48407920F040000D490C
:10181000487100BF0B48807900F020000028F9D102
:101820002046FFF773FC0748407940F04000054927
:10183000487100BF0348807900F020000028F9D0EB
:10184000002070BD00400640094A4168516401789B
:10185000526861F31142064B5A6000BF4178054A55
:10186000126861F39342034B1A6000BF7047000097
:10187000008004400070044030B10749496D41F0D8
:101880000801054A516505E00349496D21F0080149
:10189000014A51657047000000F00F4008B5002173
:1018A000009103E000BF0099491C0091024A009991
:1018B00012689142F6D308BD00010020014908607A
:1018C000704700000C08FE432DE9FF4F91B0904691
:1018D0004FF0000A119C002004F8010B129903C973
:1018E000CDE9080100221346DDE90801FFF752F9AE
:1018F00007D1302020700AF1010A504615B0BDE82A
:10190000F08F04AADDE9080105F0E2FFCDE9060148
:101910004FF0000B0CE04046FFF7C6F8CDE902019E
:10192000DDE90623FEF7DFFFCDE906010BF1010B30
:1019300014988345EFD300221346DDE90801FFF731
:1019400041F922D800225A4BDDE90601FEF724FFB7
:1019500006460F461498FFF7B8F802460B46CDE945
:1019600000010020534906F017F832463B46CDE906
:101970000201FFF70FF92AD800224F4BDDE90401DD
:10198000FEF70AFFCDE9040121E00022484BDDE922
:101990000601FEF7A2FF06460F461498FFF795F8DA
:1019A00002460B46CDE900010020444905F0F4FF52
:1019B00032463B46CDE90201FFF704F907D8002281
:1019C0003D4BDDE90401FEF788FFCDE904014FF04E
:1019D000000B3CE04046FFF767F802460B46CDE9B6
:1019E000020130463946FEF7F0FFCDE90A01DDE994
:1019F0000A01FFF7AAF84FEAE873A0FB082C01FBE5
:101A000008C100FB0310CDE9002010460199FFF743
:101A100069F832463B46CDE90201FEF761FFCDE9A8
:101A20000C01DDE90C01FFF771F80546002D05DA20
:101A30000E950E9DE84300F1310500E03035DDE9FB
:101A40000A6704F8015B0AF1010A0BF1010B149813
:101A50008345BFD32E2004F8010B0AF1010ADDE90A
:101A60000401FFF753F88146B9F1000F05D130208A
:101A700004F8010B0AF1010A18E014E099FBF8F0F0
:101A80000F900F9800FB1895002D05DA0E950E9D0E
:101A9000E84300F1310500E03035DDF83C9004F812
:101AA000015B0AF1010AB9F1000FE7D1504625E7C1
:101AB0000000E03F000024400000F03F000024C090
:101AC0002DE9FF4F89B01E4600200190DDF824B0BB
:101AD0000BF8010B0B9800284DD00A98D0E900783C
:101AE000002187EA010088EA0101084309D130207A
:101AF0008BF800000198401C019001980DB0BDE8E2
:101B0000F08F2FE03246F31738464146FEF79DFD31
:101B1000CDE90601F317DDE90601A0FB062C01FB68
:101B200006C103FB0013B91A68EB0300CDE90410EA
:101B30000023DDE90410C91A984107DA049CE14347
:101B4000491C4FF030000818049002E0049830302F
:101B50000490DDE9067804980BF8010B019800F178
:101B6000010001904FF0000187EA010088EA0101BD
:101B70000843C7D148E00A98D0E9009A002189EAD1
:101B800001008AEA0101084307D130208BF80000E8
:101B90000198401C01900198B0E72DE03246F31700
:101BA00048465146FEF720FDCDE90201F317DDE975
:101BB0000201A0FB062C01FB06C100FB0310B9EBE0
:101BC00002046AEB00050A21611A75F1000001D2D6
:101BD000303409E00A21601A65F10001169909B153
:101BE000412100E061214418DDE9029A0BF8014B24
:101BF000019800F1010001904FF0000189EA010015
:101C00008AEA01010843C9D1019877E7FEB5054684
:101C10000E4614461F461E48007808B10120FEBD3E
:101C20001B480470012C2DD14560684603F094FDDB
:101C3000009617493A464868694603F013FE144A6D
:101C40000121506821B1C27842F00802C27003E05D
:101C5000C27822F00802C27000BF0D4A012150680C
:101C600021B1C27842F00402C27003E0C27822F0CF
:101C70000402C27000BF074805498860064904484D
:101C8000C16001E00420CAE700BF0020C7E70000F0
:101C9000D41A0020055B0000A95A00000FB438B523
:101CA0000948007820B94FF0FF3038BC5DF814FBCC
:101CB00005A800900548009A049900F009F8044628
:101CC000002000902046F0E7D41A0020E122000016
:101CD0002DE9F74F9AB0064600200F9080460D90F0
:101CE00009900021049105911B9FDDE2252C05D070
:101CF0002046B0470D98401C0D90D4E24FF0010BE8
:101D0000002500200E9023E0781C074600782B2841
:101D10000DD004DC20280DD0232814D110E02D286C
:101D200002D030280FD108E045F001050FE045F062
:101D300002050CE045F0040509E045F0080506E061
:101D400045F0100503E07F1E01200E9000BF00BF8C
:101D50000E980028D8D04FF0000A00200E9010E016
:101D6000781C07460478302C08DB392C06DCA4F1FB
:101D700030000AEB8A0100EB410A02E07F1E0120DD
:101D80000E900E980028EBD006200C90781C074689
:101D900000782E281AD100200C900E9012E0781CAA
:101DA00007460478302C0ADB392C08DCA4F130001B
:101DB0000C9901EB810100EB41000C9002E07F1EC9
:101DC00001200E900E980028E9D000E07F1E781CBC
:101DD00007460078682802D06C2818D10BE0781CE0
:101DE00007460078682803D045F040057F1E01E0D3
:101DF00045F020050DE0781C074600786C2803D0DC
:101E000045F080057F1E01E045F4807501E07F1EEE
:101E100000BF00BF781C07460478642C11D0692CE1
:101E20000FD0662C0DD0462C0BD0782C09D0582C16
:101E300007D06F2C05D0622C03D0702C01D0752CEC
:101E40007ED1642C01D0692C78D105F4807068B102
:101E50001C98C01D20F0070001461C9000684968CE
:101E60001C9A08321C92CDE9060107E01C98006814
:101E70001C99091D1C91C117CDE906010A230122F5
:101E800006A910A8CDF800B0FFF71AFE804610A8EA
:101E900040440F9000221146DDE906309A1A88412D
:101EA00004DA4FF02D0908F1010811E005F00200F5
:101EB00020B14FF02B0908F1010809E005F00400FA
:101EC00020B14FF0200908F1010801E04FF00009AE
:101ED0000020089005F0080090B1B9F1000F04D07F
:101EE0004846B0470D98401C0D90012008900DAB5E
:101EF000524641463020009600F0DEF9D04613E00D
:101F000005F0010080B90DAB5246414620200096F5
:101F100000F0D2F9B9F1000F04D04846B0470D984F
:101F2000401C0D9001200890089838B9B9F1000FB5
:101F300004D04846B0470D98401C0D90662C00E038
:101F40006BE101D0462C6AD11C98C01D20F007001F
:101F500001461C90006849681C9A08321C92CDE921
:101F600002010A2202A910A80C9BFFF7ADFC8046D3
:101F700010A840440F9000221346DDE90201FEF74D
:101F800009FE04D24FF02D0908F1010811E005F017
:101F9000020020B14FF02B0908F1010809E005F01B
:101FA000040020B14FF0200908F1010801E04FF0D2
:101FB00000090020089005F0080090B1B9F1000F69
:101FC00004D04846B0470D98401C0D900120089061
:101FD0000DAB524641463020009600F06DF9D046D8
:101FE00013E005F0010080B90DAB524641462020B8
:101FF000009600F061F9B9F1000F04D04846B047EF
:102000000D98401C0D9001200890089838B9B9F13E
:10201000000F04D04846B0470D98401C0D90582C36
:1020200001D0782C7ED1782C01D14FF0000B05F433
:10203000807068B11C98C01D20F0070001461C90FC
:10204000006849681C9A08321C92CDE9040107E037
:102050001C9800681C99091D1C910021CDE9040100
:102060001023002204A910A8CDF800B0FFF728FD26
:10207000804610A840440F900020089005F008000A
:10208000D0B105F0100070B13020B047BBF1000FA7
:1020900001D0582100E078210846B0470D98801CF7
:1020A0000D90012008900DAB52464146302000961D
:1020B00000F002F9D04620E005F00100E8B905F093
:1020C000100008B108F102080DAB5246414620202D
:1020D000009600F0F1F805F0100070B13020B04724
:1020E000BBF1000F01D0582100E078210846B0472D
:1020F0000D98801C0D900120089005F0100040B153
:10210000089830B93020B047BBF1000F02D05821F9
:1021100001E007E078210846B0470D98801C0D903B
:1021200008F102086F2C09D11C9800681C99091D40
:102130001C910021CDE9040108200990622C0CD1EA
:102140001C9800681C99091D1C910021CDE904010F
:102150000220099010A840440F90702C0CD11C98BC
:1021600000681C99091D1C910021CDE90401102073
:10217000099010A840440F90752C0CD11C98006851
:102180001C99091D1C910021CDE904010A20099028
:1021900010A840440F906F2C05D0622C03D0702CF7
:1021A00001D0752C21D1CDF800B0002204A910A8CF
:1021B000099BFFF785FC804610A840440F9005F06E
:1021C000080040B10DAB524641463020009600F069
:1021D00073F8D04609E005F0010030B90DAB524666
:1021E00041462020009600F067F807E00F9911F8AB
:1021F00001090F91B0470D98401C0D900F98007881
:102200000028F3D105F00100F0B30DAB5246414672
:102210002020009600F050F844E0632C0BD11C986D
:1022200010F8041B1C90C8B20A900A98B0470D9889
:10223000401C0D9036E0732C2FD11C9800680B9039
:102240001C98001D1C900B98F0B10B98FEF764FAD7
:10225000804605F0010030B90DAB524641462020C2
:10226000009600F029F807E00B9911F8010B0B918B
:10227000B0470D98401C0D900B9800780028F3D1C2
:1022800005F0010000B100E00CE00DAB5246414604
:102290002020009600F010F804E02046B0470D988A
:1022A000401C0D9000BF7F1C3878041E7FF41EADCB
:1022B0000D981DB0BDE8F08F2DE9F04780460D4622
:1022C00016461C46DDF820902F4605E04046C847DC
:1022D0002068401C20607F1CB742F7DBBDE8F08718
:1022E00001B50748007810B94FF0FF3008BD044928
:1022F000486801228B68694698470120F6E700008C
:10230000D41A002004460DA003F00CFC214610A0B6
:1023100003F008FC4FF080610F4800F0E1F84FF443
:1023200000110D48C03800F0DBF84FF480010A4876
:10233000C03800F091F872B600BFFEE7737973748D
:10234000656D2068616C742121210D0A0000000078
:1023500025730D0A0000000000F10F4070B505461E
:10236000284600F013F804461CB10020206001202C
:1023700070BD0020FCE770B50546284600F006F861
:1023800004460CB10020206070BD0000014609B970
:10239000024801E0002000BF00BF7047DC000020C1
:1023A00070B50020FEF7E4FF4FF47A71B0FBF1F452
:1023B000601EB0F1807F00D31BE0601E4FF0E02173
:1023C000486148170F21002807DA0A07150E094A45
:1023D00000F00F031B1FD55403E00A07130E064A33
:1023E000135400BF00204FF0E021886107200861EE
:1023F00000BF70BD18ED00E000E400E070B50546D8
:102400002846FFF7C3FF044614B10120206070BDC9
:102410000020FCE72DE9F04180460C464046FFF7DE
:10242000B5FF06469CB196B10A48076800BF094847
:102430000068C51B306808B9A542F8D30020306099
:10244000A54202D20120BDE8F0810020FBE7002078
:10245000F9E70000E00000208160704770B5044695
:102460000D46164606B104E04B220EA11AA003F059
:102470007DFB307828B961690120A8408143616102
:102480000FE02846717819B901228240A26002E06B
:1024900001228240626000BF60690121A9400843B7
:1024A000606170BD2E2E2F2E2E2F2E2E2F2E2E2F12
:1024B0002E2E2F646576696365732F4D4B36344637
:1024C00031322F647269766572732F66736C5F6741
:1024D00070696F2E63000000636F6E6669670000AD
:1024E00041607047C1607047084A0020012102F531
:1024F000807303EB0013D96000BF0548006840F407
:10250000806003498C39C1F88C007047007003402B
:102510008CF00F4070B50546002406E0094850F8DD
:102520002400A84200D102E0641C002CF6D000BFB9
:1025300004B904E0462204A110A003F017FB2046D2
:1025400070BD00004C8F00002E2E5C2E2E5C2E2EB7
:102550005C2E2E5C2E2E5C646576696365735C4D23
:102560004B36344631325C647269766572735C66F0
:10257000736C5F7069742E6300000000696E737481
:10258000616E6365203C2046534C5F46454154557F
:1025900052455F534F435F5049545F434F554E542C
:1025A0000000000070B504460D4605B104E04D2260
:1025B00011A11EA003F0DAFA2046FFF7ABFF1D4978
:1025C00051F820601C4901EB164001680122B2401D
:1025D0001143016000BF206820F0020020602878CD
:1025E00020B1206820F00100206003E0206840F066
:1025F0000100206070BD00002E2E5C2E2E5C2E2E61
:102600005C2E2E5C2E2E5C646576696365735C4D72
:102610004B36344631325C647269766572735C663F
:10262000736C5F7069742E6300000000636F6E66E8
:1026300069670000508F0000007004402DE9F041F0
:1026400005460E46144604B104E0D22204A111A0AE
:1026500003F08CFA05EB860720883880BDE8F0810E
:102660002E2E2F2E2E2F2E2E2F2E2E2F2E2E2F644F
:102670006576696365732F4D4B36344631322F646E
:102680007269766572732F66736C5F706F72742EE9
:1026900068000000636F6E666967000050F82130C3
:1026A00062F30A2340F8213070470163704700004D
:1026B00070B50546284600F0C3F8064951F8204099
:1026C000054901EB144001680122A24091430160D9
:1026D00000BF70BDE88E00000070044010B50848CF
:1026E000006800B105E040F20A5206A112A003F012
:1026F0003DFA03480168144800F006FE10BD0000D2
:10270000080000202E2E2F2E2E2F2E2E2F2E2E2F75
:102710002E2E2F646576696365732F4D4B363446D4
:1027200031322F647269766572732F66736C5F73D2
:102730006468632E63000000735F736468634861BC
:102740006E646C655B305D0000100B402DE9F0415C
:1027500005460C4604B105E040F237320FA11CA03B
:1027600003F004FAD5F8FC702E6CF8B22060C7F3C1
:1027700007206060C6F302484FF4007000FA08F0CA
:10278000A0604FF6FF70E06006F0F87020612069ED
:1027900040F030002061BDE8F08100002E2E2F2E89
:1027A0002E2F2E2E2F2E2E2F2E2E2F646576696320
:1027B00065732F4D4B36344631322F64726976651E
:1027C00072732F66736C5F736468632E630000001E
:1027D0006361706162696C697479000070B5054667
:1027E0000C46042C00D205E040F25B3204A111A09B
:1027F00003F0BCF905F1100050F8240070BD000092
:102800002E2E2F2E2E2F2E2E2F2E2E2F2E2E2F64AD
:102810006576696365732F4D4B36344631322F64CC
:102820007269766572732F66736C5F736468632E6A
:1028300068000000696E646578203C203455000013
:1028400070B50546002401E0601CC4B2012C04DA16
:10285000074850F82400A842F6D1012C00DA04E021
:10286000F52204A110A003F081F9204670BD0000FC
:10287000E08E00002E2E2F2E2E2F2E2E2F2E2E2FBE
:102880002E2E2F646576696365732F4D4B36344663
:1028900031322F647269766572732F66736C5F7361
:1028A0006468632E63000000696E7374616E636513
:1028B000203C2046534C5F464541545552455F539A
:1028C0004F435F534448435F434F554E540000000D
:1028D0000146086B70470146486A70472DE9F04190
:1028E00005460C4604B105E040F2F62226A133A0CD
:1028F00003F03CF9A078012800D005E04FF43E72C7
:1029000021A130A003F032F92846FFF799FF37499B
:1029100051F82080364901EB18400168012202FA83
:1029200008F21143016000BF64224FF08071284615
:1029300000F010F9AE6A6F6C26F44E76207808B17C
:1029400046F008066078302101EA0010A1784FF4C3
:10295000407202EA01210843064307F0FF2720796D
:1029600021894FF47F0202EA0141084307436F6463
:10297000AE62E86A40F00700E8620021284600F0F5
:102980004DFABDE8F08100002E2E2F2E2E2F2E2E78
:102990002F2E2E2F2E2E2F646576696365732F4D93
:1029A0004B36344631322F647269766572732F6606
:1029B000736C5F736468632E63000000636F6E6600
:1029C00069670000636F6E6669672D3E646D614DD7
:1029D0006F646520213D206B534448435F446D6123
:1029E0004D6F646541646D6131000000E88E000048
:1029F000007004402DE9F04781460D46164605B1AA
:102A000005E040F29F1215A121A003F0AFF8D9F81C
:102A10004400C7B2D5E9011048438408A74201D356
:102A2000A04608E0A74204D2A01BB84201D3B84692
:102A300001E0A4EB06084FF0000A09E000BFD9F856
:102A400020003146761CEB6843F821000AF1010AA8
:102A5000C245F3D33046BDE8F08700002E2E2F2E5E
:102A60002E2F2E2E2F2E2E2F2E2E2F64657669635D
:102A700065732F4D4B36344631322F64726976655B
:102A800072732F66736C5F736468632E630000005B
:102A9000646174610000000070B506460C4604B124
:102AA00005E040F281121CA128A003F05FF8607AD3
:102AB00088B300213046FFF791FEE060607A03287A
:102AC00029D101213046FFF789FE206102213046DD
:102AD000FFF784FE606103213046FFF77FFEA061AF
:102AE000042500BF681E04F10C0151F82000020209
:102AF000681E41F82020012D09D951F82020A81E78
:102B000051F8200042EA1062681E41F82020281E79
:102B1000A5F10105E6D170BD2E2E2F2E2E2F2E2EC3
:102B20002F2E2E2F2E2E2F646576696365732F4D01
:102B30004B36344631322F647269766572732F6674
:102B4000736C5F736468632E63000000636F6D6D68
:102B5000616E640010B50346D86A01F0E06420435A
:102B6000D86202E002B904E0521ED86A0840002888
:102B7000F8D100BF0AB1012010BD0020FCE7000021
:102B80002DE9F04F84460C4617469846DDE9095674
:102B9000002017B1B8F1000F03D1012C05D0022C91
:102BA00003D015B10EB1012C01D1042052E014B1B3
:102BB000022C4DD100E04CE02B464FF6FF7AB6FBDD
:102BC000FAFA0AF101094FEA880AB9EBDA0F01D9DA
:102BD00003203CE03A46002131E0A3EB050A4FEA2E
:102BE000AA0A4FF0040B0BFB1A6ABAF5803F14D205
:102BF00002EBC10ACAF80430A3EB050A4FEAAA0A9D
:102C00000BFB1A6A4FEA0A4A42F831A052F831A087
:102C10004AF0230A42F831A010E002EBC10ACAF8D8
:102C20000430DFF834A042F831A052F831A04AF065
:102C3000210A42F831A04FF6FC7A5344491C494519
:102C4000CBD34FF0000ACCF800A0CCF8587000E0CD
:102C500000BF00BFBDE8F08F0000FCFF0246D06A55
:102C600040F00060D06202E001B905E0491ED06A80
:102C700000F000600028F7D000BF09B101207047C4
:102C80000020FCE72DE9F04704468846174617B1B7
:102C9000474500D205E040F2553223A12FA002F0B3
:102CA00065FF4FF0000A01260225E06A20F00800C7
:102CB000E062AFB300E06D00B8FBF5F0B7EB101FBA
:102CC00001D2FF2DF7D900E0761CB8FBF5F0B0FB80
:102CD000F6F0B84201D9102EF6D3B8FBF5F0B0FBF0
:102CE000F6FA6D08761ED4F82C90274809EA0009F8
:102CF000F02000EA06104FF47F4101EA0521084365
:102D000040F4602040EA0909C4F82C9000BF606AD2
:102D100000F008000028FAD0E06A40F00800E06205
:102D20005046BDE8F08700002E2E2F2E2E2F2E2E7F
:102D30002F2E2E2F2E2E2F646576696365732F4DEF
:102D40004B36344631322F647269766572732F6662
:102D5000736C5F736468632E630000006275734375
:102D60006C6F636B5F487A20262620286275734358
:102D70006C6F636B5F487A203C20737263436C6FA7
:102D8000636B5F487A2900000F00F0FF70B50546BD
:102D90000C4604B105E040F293320FA11BA002F0F3
:102DA000E5FE2088C0F30C00A1881A4A02EA01411E
:102DB0000843696801F4604108436860A068A8603E
:102DC000207B4FF07C5101EA0060134A21691140D9
:102DD0000843E86070BD00002E2E2F2E2E2F2E2EC1
:102DE0002F2E2E2F2E2E2F646576696365732F4D3F
:102DF0004B36344631322F647269766572732F66B2
:102E0000736C5F736468632E63000000636F6E66AB
:102E1000696700000000FFFF3700FB002DE9F04765
:102E200004460F46A06AC0F30128A06AC0F3C00997
:102E30002048616B8143616300BF00BFA16B814388
:102E4000A16300BF2046FFF7FBFC1B490E5600BFE5
:102E500006F01F01012088401849720941F822003C
:102E600000BF00BF164DB9F1000F01D045F0C005FD
:102E7000B8F1000F0AD0B8F1010F03D0B8F1020F7A
:102E800007D100E000BF0F48054303E045F03005DF
:102E900000E000BF00BF00BF606B2843606300BF5D
:102EA0002FB100BFA06B2843A06300BF00BFBDE8E7
:102EB000F08700003F017F11E48E000080E100E018
:102EC00003007F01080000102DE9F04186B007469D
:102ED0000E46154606B105E040F2231234A141A08A
:102EE00002F044FE0024707A0A2822D2DFE800F0C3
:102EF0000506090C0F1215181B1E1BE044F4D01414
:102F000018E044F4D81415E044F4102412E044F41A
:102F100000340FE044F400340CE044F4202409E0D1
:102F200044F4D81406E044F4D01403E044F4D0147C
:102F300000E000BF00BF307A032801D144F4400410
:102F40003DB344F40014B86AC0F30128B8F1000F8F
:102F500001D044F00104E86808B144F01004A86806
:102F6000012805D944F02204287808B144F004046B
:102F7000A868B0F5803F07D3686801904FF6FF70EE
:102F8000029024F0020407E068680190A8680290AB
:102F900002E0002001900290706803903068049075
:102FA000059401A93846FFF7F1FE06B0BDE8F081AF
:102FB0002E2E2F2E2E2F2E2E2F2E2E2F2E2E2F64F6
:102FC0006576696365732F4D4B36344631322F6415
:102FD0007269766572732F66736C5F736468632EB3
:102FE00063000000636F6D6D616E64002DE9F04158
:102FF00080460C4615461F4604B105E04FF4946226
:103000001CA129A002F0B2FD05B105E040F2A142E9
:1030100018A127A002F0AAFD28212046FDF75FFB9A
:103020002868206169686161A968A161E968E16156
:103030002969216267624046FFF702FC1F4941F897
:10304000204001214046FFF7E9FE4046FFF7F8FB2C
:103050001B490E5600BF06F01F0101208840710970
:10306000890001F1E021C1F8000100BF00BFBDE807
:10307000F08100002E2E2F2E2E2F2E2E2F2E2E2FB3
:103080002E2E2F646576696365732F4D4B3634465B
:1030900031322F647269766572732F66736C5F7359
:1030A0006468632E6300000068616E646C650000F4
:1030B00063616C6C6261636B0000000008000020BB
:1030C000E48E000070B504460D4605F0C00000B166
:1030D00005E04FF4287208A114A002F047FD05F0A6
:1030E000400020B1206930B12069804703E0606969
:1030F00008B16069804770BD2E2E2F2E2E2F2E2EE8
:103100002F2E2E2F2E2E2F646576696365732F4D1B
:103110004B36344631322F647269766572732F668E
:10312000736C5F736468632E63000000696E74657E
:103130007272757074466C6167732026206B5344FD
:1031400048435F43617264446574656374466C61AF
:10315000670000002DE9F04106460C46154614486C
:10316000284000B105E04FF42D7212A11EA002F01C
:10317000FDFC05F4702058B1206848B9206A38B1C8
:1031800040F2A66221463046D4E90873B8470DE004
:1031900061683046FFF780FC206838B9206A28B1A2
:1031A000002221463046D4E90873B847BDE8F081D3
:1031B00001000F002E2E2F2E2E2F2E2E2F2E2E2FD3
:1031C0002E2E2F646576696365732F4D4B3634461A
:1031D00031322F647269766572732F66736C5F7318
:1031E0006468632E63000000696E746572727570A6
:1031F00074466C6167732026206B534448435F43D9
:103200006F6D6D616E64466C616700002DE9F04181
:1032100006460C461546206800B105E040F2C7227C
:103220001FA12CA002F0A2FC2E48284000B105E00E
:103230004FF432721AA12CA002F098FC206840785A
:1032400068B928483A38284048B1206A38B140F275
:10325000A76221463046D4E90873B8471EE005F05E
:10326000200030B1E26821683046FFF7C3FBE06020
:1032700014E005F0100030B1E2682168304600F03B
:1032800027F9E0600AE005F0020038B1206A28B1B1
:10329000002221463046D4E90873B847BDE8F081E2
:1032A0002E2E2F2E2E2F2E2E2F2E2E2F2E2E2F6403
:1032B0006576696365732F4D4B36344631322F6422
:1032C0007269766572732F66736C5F736468632EC0
:1032D0006300000068616E646C652D3E646174611A
:1032E000000000003A007011696E746572727570AA
:1032F00074466C6167732026206B534448435F44D7
:10330000617461466C61670070B506460D4605B193
:1033100005E04FF49D621BA127A002F027FC304678
:10332000FFF7D6FA0446AC6004F0C00020B104F008
:10333000C0012846FFF7C6FE2148204030B1204892
:1033400004EA000229463046FFF704FF1D482040EA
:1033500030B11C4804EA000229463046FFF756FF08
:1033600004F4807010B1284600F035F804F0040031
:1033700010B1284600F028F821463046FFF795F9AD
:1033800070BD00002E2E2F2E2E2F2E2E2F2E2E2FE4
:103390002E2E2F646576696365732F4D4B36344648
:1033A00031322F647269766572732F66736C5F7346
:1033B0006468632E6300000068616E646C650000E1
:1033C00001000F003A00701110B50446E06908B121
:1033D000E069804710BD10B50446A06908B1A06936
:1033E000804710BD2DE9FF4F83B080460E469346BF
:1033F000109D05B105E040F2B94225A131A002F0CF
:10340000B5FBD8F82800C0F301294FF0000A6F6817
:103410002C68686830B1286838B12868007900F0F5
:10342000030010B14FF0040A2EE04046FFF753FAB4
:1034300000F0010030B944B14046FFF74CFA00F00B
:10344000020010B140F2A46A1EE09CB1D4E9011060
:103450004143E06808B1E06800E02069CDE900017F
:103460005A4649464046069BFFF78AFB10B140F298
:10347000A56A09E0776034600020B060F060224601
:1034800039464046FFF720FD504607B0BDE8F08FB3
:103490002E2E2F2E2E2F2E2E2F2E2E2F2E2E2F6411
:1034A0006576696365732F4D4B36344631322F6430
:1034B0007269766572732F66736C5F736468632ECE
:1034C000630000007472616E736665720000000034
:1034D0002DE9F04781460D46164605B105E04FF44B
:1034E000F67216A122A002F041FBD9F84400C0F305
:1034F0000747D5E9011048438408A74201D3A046F5
:1035000008E0A74204D2A01BB84201D3B84601E0AC
:10351000A4EB06084FF0000A0AE03146761C2B693E
:1035200053F82100C9F8200000BF0AF101008246CB
:10353000C245F2D33046BDE8F08700002E2E2F2E74
:103540002E2F2E2E2F2E2E2F2E2E2F646576696372
:1035500065732F4D4B36344631322F647269766570
:1035600072732F66736C5F736468632E6300000070
:10357000646174610000000030B589B005460C46F6
:1035800004B104E093220DA11AA002F0EFFA00208A
:10359000079008901C216846FDF7A1F800200090D4
:1035A000CDF820D0079007A92846A04718B140F2CF
:1035B000097009B030BD0020FBE700002E2E2F2E31
:1035C0002E2F2E2E2F2E2E2F2E2E2F6D6964646CF3
:1035D00065776172652F73646D6D635F322E302E77
:1035E000302F7372632F66736C5F73646D6D632E1F
:1035F000630000007472616E736665720000000003
:10360000F0B589B007460C4615461E4604B104E0E5
:10361000272215A122A002F0A9FA00200790089005
:103620001C216846FDF75BF8072000902EB12804A6
:10363000019001208DF8090003E0002001908DF831
:103640000900CDF820D00020079007A93846A047F0
:1036500018B916490398084018B140F2097009B02A
:10366000F0BD0020FBE700002E2E2F2E2E2F2E2E39
:103670002F2E2E2F2E2E2F6D6964646C657761724C
:10368000652F73646D6D635F322E302E302F737231
:10369000632F66736C5F73646D6D632E630000004F
:1036A0007472616E73666572000000000800F9FFB5
:1036B00070B58AB006460C46154604B104E0632294
:1036C00016A124A002F052FA0020089009901C21B3
:1036D00001A8FDF704F8372001900020029028048B
:1036E000029001208DF80D0001A80990002008909B
:1036F00008A93046A04718B919490498084018B1DC
:1037000040F209700AB070BD049800F0200010B9B2
:1037100040F20C70F6E70020F4E700002E2E2F2E6A
:103720002E2F2E2E2F2E2E2F2E2E2F6D6964646C91
:1037300065776172652F73646D6D635F322E302E15
:10374000302F7372632F66736C5F73646D6D632EBD
:10375000630000007472616E7366657200000000A1
:103760000800F9FF70B58AB006460C46154604B14C
:1037700004E0BC2211A11FA002F0F8F9002008907B
:1037800009901C2101A8FCF7AAFF102001900295C6
:1037900001208DF80D0001A809900020089008A9CB
:1037A0003046A04718B916490498084018B140F2AD
:1037B00009700AB070BD0020FBE700002E2E2F2EEE
:1037C0002E2F2E2E2F2E2E2F2E2E2F6D6964646CF1
:1037D00065776172652F73646D6D635F322E302E75
:1037E000302F7372632F66736C5F73646D6D632E1D
:1037F000630000007472616E736665720000000001
:103800000800F9FF30B589B005460C4604B104E064
:10381000A62213A120A002F0A9F900200790089089
:103820001C216846FCF75BFF0C20009000200190F3
:1038300003208DF8080002208DF80900CDF820D073
:103840000020079007A92846A04718B915490398F2
:10385000084018B140F2097009B030BD0020FBE704
:103860002E2E2F2E2E2F2E2E2F2E2E2F2E2E2F6D34
:103870006964646C65776172652F73646D6D635FF5
:10388000322E302E302F7372632F66736C5F736429
:103890006D6D632E630000007472616E73666572F5
:1038A000000000000800F9FF70B58AB006460C461B
:1038B000154604B104E0452218A126A002F056F9ED
:1038C0000020089009901C2101A8FCF708FF0D209A
:1038D00001902804029001208DF80D0000BF01A87E
:1038E00009900020089008A93046A04718B91C4943
:1038F0000498084018B140F209700AB070BD0498ED
:1039000000F4807028B10498C0F34320072800D049
:1039100000E0E4E700BF0020EFE700002E2E2F2E8E
:103920002E2F2E2E2F2E2E2F2E2E2F6D6964646C8F
:1039300065776172652F73646D6D635F322E302E13
:10394000302F7372632F66736C5F73646D6D632EBB
:10395000630000007472616E73666572000000009F
:103960000800F9FF10B58AB0044604B105E040F242
:10397000DD2215A121A002F0F9F80020089009909D
:103980001C2101A8FCF7ABFE022001900020029050
:1039900003208DF80D0001A809900020089008A9C7
:1039A000A26A2068904758B904A80FC83C340FC4D5
:1039B0004C3C04A9204600F08BF800200AB010BD52
:1039C00040F20970FAE700002E2E2F2E2E2F2E2EF9
:1039D0002F2E2E2F2E2E2F6D6964646C65776172E9
:1039E000652F73646D6D635F322E302E302F7372CE
:1039F000632F66736C5F73642E630000636172648F
:103A000000000000F0B589B004460D4604B105E0A1
:103A100040F2F5221FA12CA002F0A8F80020079088
:103A200008901C216846FCF75AFE4FF47A7729204B
:103A30000090019504208DF8090024E0204600F054
:103A400041FD18B140F2157009B0F0BDCDF820D09D
:103A50000020079007A9A26A2068904710B140F2A1
:103A60000970F1E7039800F0004058B1039800F0A6
:103A7000804018B1A06B40F00200A06300260398BC
:103A8000606604E00526381EA7F10107D6D100BF05
:103A90003046D9E72E2E2F2E2E2F2E2E2F2E2E2FC4
:103AA0002E2E2F6D6964646C65776172652F736467
:103AB0006D6D635F322E302E302F7372632F6673FD
:103AC0006C5F73642E630000636172640000000029
:103AD00070B506460C4606B105E04FF4317219A1E7
:103AE00025A002F043F804B105E040F2C52215A17B
:103AF00023A002F03BF806F16805E068000E28708C
:103B0000E068C0F30F206880207B2871A068010E58
:103B10006971A068010CA9712089010AE971217AF3
:103B200029726068000E687260680002E860E868E8
:103B3000216840EA1160E8602068C0F30B20288209
:103B400070BD00002E2E2F2E2E2F2E2E2F2E2E2F1C
:103B50002E2E2F6D6964646C65776172652F7364B6
:103B60006D6D635F322E302E302F7372632F66734C
:103B70006C5F73642E630000636172640000000078
:103B8000726177436964000070B506460D4606B160
:103B900005E040F2462276A182A001F0E7FF05B1E0
:103BA00005E040F2472272A180A001F0DFFF06F19C
:103BB0007C04E868800F2070E868000C6070A889B9
:103BC000000AA070287BE070A868000DA080A8689B
:103BD000C0F30340A071288900F4004018B1208987
:103BE00040F001002081288900F4804018B120892C
:103BF00040F001002081288900F4005018B120898C
:103C000040F004002081288900F4805018B12089F8
:103C100040F008002081207810B1012859D13CE003
:103C200028898005000DE060E068696840EA9170CD
:103C3000E0606868C0F3C26020746868C0F3026026
:103C40006074686800F46000000DA0746868C0F3D8
:103C50008240E0746868C0F3C2302075E068401CA0
:103C6000217D891C884046F8A40FA1790120884055
:103C700070607068A43EB0F5007F0DD056F8A40FB8
:103C80007168484330604FF400707060D6E90001FD
:103C9000B0FBF1F046F8A4091CE04FF40070C6F840
:103CA000A800287A8006800AE060E068696840EA37
:103CB0001140E0604FF6FF71E068884203D3B06BBB
:103CC00040F01000B063E068401C8002C6F8A40019
:103CD00000E000BF00BFA888C0F3803018B1208981
:103CE00040F010002081A888C0F3C61060752879C4
:103CF00000F07F00A0752878002018B1208940F0DE
:103D0000200020812868C0F38260E0752868C0F335
:103D1000835020762868C0F3405018B1208940F0C5
:103D2000400020812888C0F3C03018B1208940F0BD
:103D3000800020812888C0F3803018B1208940F4A9
:103D4000807020812888C0F3403018B1208940F469
:103D5000007020812888C0F3003018B1208940F419
:103D6000806020812888C0F38120607670BD0000CB
:103D70002E2E2F2E2E2F2E2E2F2E2E2F2E2E2F6D1F
:103D80006964646C65776172652F73646D6D635FE0
:103D9000322E302E302F7372632F66736C5F736414
:103DA0002E6300006361726400000000726177435B
:103DB0007364000070B505460E4605B105E040F29B
:103DC00071122DA139A001F0D1FE06B105E04FF42A
:103DD000B97229A137A001F0C9FE05F19804306835
:103DE000000F20703068C0F3036060703068C0F36B
:103DF000C05018B1608840F0010060803068C0F3A6
:103E0000025020713068C0F3034060713088C0F305
:103E1000C03018B1608840F002006080308800F443
:103E2000F040800AA071307800F00300E071706803
:103E3000A060607820B1012805D0022810D105E0EB
:103E4000012068630DE0022068630AE004206863D3
:103E50009A20405D00F0020008B10820686300E08D
:103E600000BF00BF9D20405D00F0040018B1A86BAA
:103E700040F00400A86370BD2E2E2F2E2E2F2E2E64
:103E80002F2E2E2F2E2E2F6D6964646C6577617234
:103E9000652F73646D6D635F322E302E302F737219
:103EA000632F66736C5F73642E63000063617264DA
:103EB00000000000726177536372000010B5044681
:103EC00004B105E040F2774204A111A001F04EFEDA
:103ED0000021204600F0C6FA10BD00002E2E2F2E25
:103EE0002E2F2E2E2F2E2E2F2E2E2F6D6964646CCA
:103EF00065776172652F73646D6D635F322E302E4E
:103F0000302F7372632F66736C5F73642E630000CF
:103F1000636172640000000010B5044604B105E05E
:103F200040F2231204A111A001F020FEA16A206832
:103F3000FFF722FB10BD00002E2E2F2E2E2F2E2E2F
:103F40002F2E2E2F2E2E2F6D6964646C6577617273
:103F5000652F73646D6D635F322E302E302F737258
:103F6000632F66736C5F73642E6300006361726419
:103F70000000000070B5044604B105E040F2F532DF
:103F80005FA16CA001F0F2FD206800B105E040F2F5
:103F9000F6325BA169A001F0E9FDA06A00B105E07D
:103FA00040F2F73256A169A001F0E0FD002600259D
:103FB000207A10B14FF4E16070BD694AD4E9000184
:103FC000FEF760FEE06264212068FEF747FE2046AF
:103FD000FFF7A2FF10B140F21370EDE704F11401F6
:103FE0002068FEF7B3FB606A00F0807008B146F409
:103FF0004016204600F0E4FA30B946F08046A06B47
:1040000040F00800A06306E02046FFF785FF10B1EE
:1040100040F21370D0E731462046FFF7F3FC054627
:10402000052D02D14FF4E160C6E715B140F21470DE
:10403000C2E72046FFF796FC10B140F20D70BBE7D7
:10404000204600F00BFB10B140F20E70B4E72046A2
:1040500000F066FA10B140F20F70ADE70121204682
:1040600000F000FA10B14FF4E260A5E7204600F03E
:104070003FFB10B140F211709EE73A4AD4E90001CB
:10408000FEF700FEE0622420005D00F01000A0B109
:1040900094F8380000F0040078B10421204600F0C4
:1040A000DBFB10B140F2127086E701212068826AC2
:1040B00061F34202826200BF00BF606A00F4001038
:1040C000A0B1204600F0D8FC054635B140F20C7096
:1040D000854202D040F21B706EE735B9224AD4E91E
:1040E0000001FEF7CFFDE06200E000254FF4007113
:1040F000204600F081FB08B140F20A7500205BE722
:104100002E2E2F2E2E2F2E2E2F2E2E2F2E2E2F6D8B
:104110006964646C65776172652F73646D6D635F4C
:10412000322E302E302F7372632F66736C5F736480
:104130002E630000636172640000000063617264BA
:104140002D3E686F73742E626173650063617264E3
:104150002D3E686F73742E7472616E7366657200A3
:10416000801A060040787D0180F0FA022DE9F043C4
:104170008FB004460F4690461D46DDF8589004B1B6
:1041800005E040F23D324AA156A001F0EFFC07B134
:1041900005E040F23E3246A154A001F0E7FCB9F13F
:1041A000000F00D005E040F23F3241A151A001F0E4
:1041B000DDFC05B105E04FF450723DA150A001F0C7
:1041C000D5FCB5F5007F00D105E040F2413238A1C1
:1041D0004EA001F0CBFC00200D900E901C2106A8F3
:1041E000FCF77DFA142101A8FCF779FA94F838005D
:1041F00000F0020010B1B5F5007F09D1D4F8A80095
:10420000A84205D3E069A84202D305F0030020B11B
:1042100040F20C700FB0BDE8F083264606B105E011
:1042200040F2151244A151A001F0A0FC326BB16A1A
:104230003068FFF739FB10B14FF4E360EAE702950D
:10424000CDF80C900497122006900398012801D114
:1042500011200690CDF81C8094F8380000F0020080
:1042600018B9029907984843079001208DF821005A
:1042700006A80E9001A80D900DA9A26A206890478B
:1042800018B93C490998084010B140F20970C1E7DB
:104290000398012809D99DF8040030B9204600F0A0
:1042A0003BFB10B140F21770B4E70020B2E700000A
:1042B0002E2E2F2E2E2F2E2E2F2E2E2F2E2E2F6DDA
:1042C0006964646C65776172652F73646D6D635F9B
:1042D000322E302E302F7372632F66736C5F7364CF
:1042E0002E63000063617264000000006275666600
:1042F00065720000626C6F636B436F756E740000D3
:10430000626C6F636B53697A65000000626C6F6367
:104310006B53697A65203D3D2046534C5F53444DB5
:104320004D435F44454641554C545F424C4F434BCF
:104330005F53495A450000002E2E2F2E2E2F2E2E71
:104340002F2E2E2F2E2E2F6D6964646C657761726F
:10435000652F73646D6D635F322E302E302F737254
:10436000632F66736C5F73642E6300006361726415
:10437000000000000800F9FF2DE9FC5F04468846B4
:1043800091461F4604B105E040F2864221A12EA0CD
:1043900001F0ECFBB8F1000F00D005E040F28742DD
:1043A0001CA12BA001F0E2FB07B105E04FF49162E4
:1043B00018A129A001F0DAFB07EB0900D4F8A4103A
:1043C000884202D90420BDE8FC9F3D4600261DE03E
:1043D000206AA84204D2206A2D1AD4F820B001E045
:1043E000AB46002508EB4620019009EB06024FF48E
:1043F0000073CDF800B020460199FFF7B7FE824662
:10440000BAF1000F01D05046DDE75E44002DDFD148
:104410000020D8E72E2E2F2E2E2F2E2E2F2E2E2F91
:104420002E2E2F6D6964646C65776172652F7364DD
:104430006D6D635F322E302E302F7372632F667373
:104440006C5F73642E63000063617264000000009F
:104450006275666665720000626C6F636B436F75B0
:104460006E74000070B504460D4604B105E04FF4CB
:10447000877205A111A001F079FB2B46226BA16A7E
:104480002068FFF7BDF870BD2E2E2F2E2E2F2E2E5A
:104490002F2E2E2F2E2E2F6D6964646C657761721E
:1044A000652F73646D6D635F322E302E302F737203
:1044B000632F66736C5F73642E63000063617264C4
:1044C0000000000010B5044604B105E04FF48E7200
:1044D00004A111A001F04AFB226BA16A2068FFF73A
:1044E000E7F810BD2E2E2F2E2E2F2E2E2F2E2E2FF4
:1044F0002E2E2F6D6964646C65776172652F73640D
:104500006D6D635F322E302E302F7372632F6673A2
:104510006C5F73642E6300006361726400000000CE
:1045200010B58AB0044604B105E040F2AB2215A1F3
:1045300021A001F01BFB0020089009901C2101A87C
:10454000FCF7CDF809200190208E00040290032092
:104550008DF80D0001A809900020089008A9A26A12
:104560002068904758B904A80FC84C340FC45C3C6D
:1045700004A92046FFF708FB00200AB010BD40F256
:104580000970FAE72E2E2F2E2E2F2E2E2F2E2E2FA5
:104590002E2E2F6D6964646C65776172652F73646C
:1045A0006D6D635F322E302E302F7372632F667302
:1045B0006C5F73642E63000063617264000000002E
:1045C00010B58AB0044604B105E040F2213214A1CE
:1045D00020A001F0CBFA0020089009901C2101A82E
:1045E000FCF77DF8082001904FF4D5700290092067
:1045F0008DF80D0001A809900020089008A9A26A72
:104600002068904718B140F209700AB010BD0498B4
:10461000C0B2AA2802D040F20C70F6E70020F4E7FE
:104620002E2E2F2E2E2F2E2E2F2E2E2F2E2E2F6D66
:104630006964646C65776172652F73646D6D635F27
:10464000322E302E302F7372632F66736C5F73645B
:104650002E630000636172640000000010B58AB030
:10466000044604B105E04FF49C7212A11EA001F0B3
:104670007DFA0020089009901C2101A8FCF72FF872
:10468000032001900020029008208DF80D0001A861
:1046900009900020089008A9A26A2068904728B9CC
:1046A0000498000C206300200AB010BD40F209708D
:1046B000FAE700002E2E2F2E2E2F2E2E2F2E2E2FED
:1046C0002E2E2F6D6964646C65776172652F73643B
:1046D0006D6D635F322E302E302F7372632F6673D1
:1046E0006C5F73642E6300006361726400000000FD
:1046F00010B590B0044604B105E040F2A1122EA11D
:104700003AA001F033FA00200E900F901C2107A868
:10471000FBF7E5FF142102A8FBF7E1FF0020009062
:1047200001902046FFF7CEFE18B140F2157010B090
:1047300010BD3320079001208DF82500002008903F
:104740000820039001200490CDF814D002A80E9008
:1047500007A80F900EA9A26A2068904718B92549AA
:104760000A98084010B140F20970E0E7607A50B151
:10477000012809D0022810D1009800BA00900198B1
:1047800000BA01900CE00BE00098FBF74BFE0090A4
:104790000198FBF747FE019002E04FF4E160C6E7A5
:1047A00000BFDDE90001C4E9170169462046FFF7B3
:1047B00001FB0020BBE700002E2E2F2E2E2F2E2EC9
:1047C0002F2E2E2F2E2E2F6D6964646C65776172EB
:1047D000652F73646D6D635F322E302E302F7372D0
:1047E000632F66736C5F73642E6300006361726491
:1047F000000000000800F9FF70B504460D4604B142
:1048000005E040F2311205A111A001F0AFF92A46EE
:10481000A16A2068FEF7A6FF70BD00002E2E2F2E85
:104820002E2F2E2E2F2E2E2F2E2E2F6D6964646C80
:1048300065776172652F73646D6D635F322E302E04
:10484000302F7372632F66736C5F73642E63000086
:10485000636172640000000030B589B004460D4603
:1048600004B105E040F221221BA128A001F07EF94D
:104870000020079008901C216846FBF730FF204677
:10488000FFF720FE18B140F2157009B030BD0620C8
:10489000009001208DF80900012D02D0042D06D1D1
:1048A00002E00020019004E00220019001E00420D9
:1048B000EBE700BFCDF820D00020079007A9A26A3F
:1048C0002068904718B913490398084010B140F286
:1048D0000970DAE70020D8E72E2E2F2E2E2F2E2E4D
:1048E0002F2E2E2F2E2E2F6D6964646C65776172CA
:1048F000652F73646D6D635F322E302E302F7372AF
:10490000632F66736C5F73642E630000636172646F
:10491000000000000800F9FF10B5044604B105E0EE
:104920004FF4957204A111A001F020F9A16A20684A
:10493000FEF768FF10BD00002E2E2F2E2E2F2E2EDC
:104940002F2E2E2F2E2E2F6D6964646C6577617269
:10495000652F73646D6D635F322E302E302F73724E
:10496000632F66736C5F73642E630000636172640F
:10497000000000002DE9F0418EB004460E461546B9
:104980001F46DDF8508004B105E04FF4A77228A15E
:1049900034A001F0EBF8B8F1000F00D005E040F2D0
:1049A0004F1223A131A001F0E1F800200C900D90EE
:1049B0001C2105A8FBF793FE14216846FBF78FFE28
:1049C000062005906FF07F4040EAC6700690AA006E
:1049D0000F219140069888430690A90007FA01F13B
:1049E00006980843069001208DF81D004020019094
:1049F00001200290CDF80C8020460199FFF7FCFEC3
:104A000020B140F20A700EB0BDE8F08105A80D900B
:104A1000CDF830D00CA9A26A2068904718B9154982
:104A20000898084010B140F20970ECE70020EAE76E
:104A30002E2E2F2E2E2F2E2E2F2E2E2F2E2E2F6D52
:104A40006964646C65776172652F73646D6D635F13
:104A5000322E302E302F7372632F66736C5F736447
:104A60002E6300006361726400000000737461745F
:104A7000757300000800F9FF10B592B0044604B148
:104A800005E04FF4EC7238A144A001F06FF840212A
:104A900002A8FBF724FE606B20B18020005B00F4CD
:104AA000806018B940F20C7012B010BD02A801234A
:104AB0000022114600902046FFF75CFF10B140F243
:104AC0001670F1E7607A50B1012809D0022810D1A0
:104AD000059800BA0590069800BA06900CE00BE025
:104AE0000598FBF79FFC05900698FBF79BFC06904A
:104AF00002E04FF4E160D7E700BF059800F4803092
:104B000028B1069800F07060B0F1706F02D140F2E9
:104B10000C70C9E702A80123002219460090204624
:104B2000FFF728FF10B140F21670BDE7607A38B188
:104B3000012806D0022809D1069800BA069008E09C
:104B400007E00698FBF76EFC069002E04FF4E16088
:104B5000AAE700BF069800F07060B0F1807F01D036
:104B60000120A1E700209FE72E2E2F2E2E2F2E2E84
:104B70002F2E2E2F2E2E2F6D6964646C6577617237
:104B8000652F73646D6D635F322E302E302F73721C
:104B9000632F66736C5F73642E63000063617264DD
:104BA000000000002DE9F0418EB004460E46174685
:104BB0001D46DDF8508004B105E040F27A3244A190
:104BC00050A000F0D3FF06B105E040F27B3240A1D7
:104BD0004EA000F0CBFFB8F1000F00D005E04FF47D
:104BE0005F723BA14BA000F0C1FF05B105E040F2B0
:104BF0007D3237A14AA000F0B9FFB5F5007F00D1A2
:104C000005E040F27E3232A148A000F0AFFF002064
:104C10000C900D901C2105A8FBF761FD142168463E
:104C2000FBF75DFD94F8380000F0020010B1B5F517
:104C3000007F09D1D4F8A800A84205D3E069A842B2
:104C400002D305F0030020B140F20C700EB0BDE8B5
:104C5000F08100BF2068416A01F080700028F9D01F
:104C60000195CDF808800496192005900298012836
:104C700001D118200590069794F8380000F0020042
:104C800018B9019906984843069001208DF81D0037
:104C900005A80D90CDF830D00CA9A26A20689047E5
:104CA00018B92D490898084010B140F20970CDE7B5
:104CB0000298012809D99DF8000030B92046FFF775
:104CC0002BFE10B140F21770C0E70020BEE70000D5
:104CD0002E2E2F2E2E2F2E2E2F2E2E2F2E2E2F6DB0
:104CE0006964646C65776172652F73646D6D635F71
:104CF000322E302E302F7372632F66736C5F7364A5
:104D00002E630000636172640000000062756666D5
:104D100065720000626C6F636B436F756E740000A8
:104D2000626C6F636B53697A65000000626C6F633D
:104D30006B53697A65203D3D2046534C5F53444D8B
:104D40004D435F44454641554C545F424C4F434BA5
:104D50005F53495A450000000800F9FF2DE9FC5F48
:104D60000446884691461F4604B105E040F2B3422E
:104D700021A12EA000F0FAFEB8F1000F00D005E04E
:104D800040F2B4421CA12BA000F0F0FE07B105E0F8
:104D900040F2B54218A129A000F0E8FE002607EB7A
:104DA0000900D4F8A410884202D90420BDE8FC9F71
:104DB0003D461DE0206AA84204D2206A2D1AD4F88C
:104DC00020B001E0AB46002508EB4620019009EB3E
:104DD00006024FF40073CDF800B020460199FFF7AA
:104DE000E1FE8246BAF1000F01D05046DEE75E4494
:104DF000002DDFD10020D9E72E2E2F2E2E2F2E2E84
:104E00002F2E2E2F2E2E2F6D6964646C65776172A4
:104E1000652F73646D6D635F322E302E302F737289
:104E2000632F66736C5F73642E630000636172644A
:104E3000000000006275666665720000626C6F6358
:104E40006B436F756E74000038B50021074800F0A1
:104E5000E1FA0020009004226946054800F089FB31
:104E60000446022000F060FA204638BD040000012C
:104E7000FCED00E00848406D20F48060064948657C
:104E80000846406D20F0040048650846406D20F05B
:104E9000080048657047000000F00F4008B528483A
:104EA000FCF71CF92648401CFCF718F92448801C24
:104EB000FCF714F92248C01CFCF710F92048001D2B
:104EC000FCF70CF94FF4A0701E4988621E48406D33
:104ED00040F480601C4948654FF4A070194988600F
:104EE0001948406D40F00400174948654FF4A07020
:104EF0001449C8601448406D40F0080012494865E4
:104F000000F068FB002000F0B5FB00F011F96946E5
:104F1000002000F0A7F90DA0009900F003FE6946FB
:104F2000FC2000F048F90DA0009900F0FBFD694657
:104F30000F4800F040F90FA0009900F0F3FD08BD04
:104F40000900381000A0044000F00F4044502D49E3
:104F500044523A307825580D0A0000004148425F1B
:104F600041505F4944523A307825580D0A000000FC
:104F7000FC0000014D444D2D41502049443A307809
:104F800025580D0A000000002DE9F04106460F46A5
:104F900000250BE03946304600F00CF80446022CA0
:104FA00002D02046BDE8F081681CC5B2042DF1DBBB
:104FB0002046F7E72DE9F04780468A460027012082
:104FC00000F02AFB4546284600F026FB2F444FEA16
:104FD0005805284600F020FB2F444FEA9805284644
:104FE00000F01AFB2F444FEAD805284600F014FBC6
:104FF0002F44384600F010FB002000F00DFB01208C
:1050000000F00AFB0020FCF737FC012403E001203C
:1050100000F002FB641E002CF9D100F0E9FA05460D
:10502000A94600F0E5FA054649EA450900F0E0FA2C
:10503000054649EA8509B9F1010F06D0B9F1020F19
:1050400051D0B9F1040F62D14EE008F0020040B334
:1050500000260027202407E000F0CAFA05462F4466
:10506000760846EAC576641E002CF5D100F0C0FA39
:10507000054687EA050000F0010008B14FF0080975
:10508000BAF1000F01D0CAF80060012403E001204A
:1050900000F0C2FA641E002CF9D10120FCF7ECFBF1
:1050A0001AE0012403E0012000F0B6FA641E002C8F
:1050B000F9D10120FCF7E0FBDAF80060002720249A
:1050C00005E0304600F0A8FA37447608641E002C4C
:1050D000F7D1384600F0A0FA0120FCF7EFFB09F009
:1050E000FF00BDE8F08700BF00BF012403E00120FE
:1050F00000F092FA641E002CF9D10120FCF7BCFBF1
:1051000000BF0120FCF7DAFB09F0FF00E9E700BF70
:1051100000BF222403E0012000F07EFA641E002C70
:10512000F9D10120FCF7CAFB09F0FF00D9E7000024
:105130001CB50020019000F02BF86946002000F01B
:1051400091F808B101201CBD1E21002000F0E4F9F7
:105150000021082000F0E0F94FF0A041042000F009
:10516000DBF900BF01A9042000F07CF808B9002099
:10517000E9E7019800F02040B0F1204FF2D1034957
:10518000042000F0C9F90020DDE70000000F005006
:1051900010B50121332000F0A9F84EF29E7000F006
:1051A000B5F80121332000F0A1F80021032000F020
:1051B0009DF8002010BD2DE9F04704460F4604F08D
:1051C0007F4904F0F00A49EA0A01082000F0A4F936
:1051D00010B10120BDE8F08704F00C0040F0030698
:1051E00039463046FFF7D0FE804639463046FFF755
:1051F000CBFE8046B8F1010F01D1002500E001256A
:105200002846E7E72DE9F04106460F4600254FF016
:1052100064083146124800F0B7F910B10120BDE82A
:10522000F08100250DE039460D48001F00F04EF8D2
:1052300008B10120F3E7386800F4803000B102E0E3
:105240006D1C4545EFDB00BF454501D10120E6E778
:1052500039460348001D00F039F804462046DEE7D1
:10526000F4ED00E02DE9F04105460E4605F00C0096
:1052700040F0020731463846FFF786FE8046B8F117
:10528000010F01D1002400E001242046BDE8F08197
:105290002DE9F04105460E462946042000F0BAF8F3
:1052A0000F2731463846FFF76FFE80460E273146FE
:1052B0003846FFF769FE8046B8F1010F01D100249E
:1052C00000E001242046BDE8F081000070B50446EE
:1052D0000D460549002000F09DF829462046FFF7BD
:1052E000D7FF0646304670BD5200002370B5044615
:1052F0000D4606E00DB1012100E00021084600F056
:105300008BF9201EA4F10104F4D170BD70B50446E0
:10531000002506E004F0010000F07EF96410681C2E
:10532000C5B2102DF6DB70BD10B5044634B1012CAA
:1053300017D0022C06D0032C4AD133E0002000F015
:1053400099F946E0002000F095F944F62060FCF75A
:10535000A5FA012000F08EF944F62060FCF79EFAD1
:1053600037E0002000F086F91420FCF797FAFFF7E9
:10537000DFFE1949194800F007F9012117480C30E0
:1053800000F002F916491548E43800F0FDF8002055
:1053900000F070F94FF4FA60FCF780FA012000F099
:1053A00069F916E0002000F065F91420FCF776FAA0
:1053B000FFF7BEFE0849094800F0E6F8002000F0BB
:1053C00059F9C820FCF76AFA012000F053F900BF30
:1053D00000BF00BF002010BD01005FA0F0ED00E0A5
:1053E0000400FA0538B5642500240DE06946084834
:1053F000FFF76CFF08B1012038BD009800F40030C1
:1054000008B10020F8E7641CAC42EFD30820F3E7B2
:10541000F0ED00E02DE9F347044604F07F4804F086
:10542000F00948EA0901082000F076F804F00C00C1
:1054300040F0010601A93046FFF7A6FD07460E26FB
:1054400000213046FFF7A0FD0746012F01D10025BE
:1054500000E001252846BDE8FC8700002DE9F05F4B
:1054600080468946154615B90020BDE8F09F002406
:105470004FEA950B16490020FFF7CCFF2044C4B239
:1054800041460420FFF7C6FF2044C4B20CB12046B9
:10549000EBE74FF00D0A00260AE049465046FFF7B9
:1054A00073FD012801D00120DFE709F10409761C12
:1054B0005E45F2D34FF00E0A00215046FFF764FD1F
:1054C0000746012F01D1002400E001240020CCE791
:1054D0005200002373B50446002564260D48019947
:1054E00000F052F844F480310A48001F00F04CF8F4
:1054F00000BF0BE001A907480838FFF7E7FE019855
:1055000000F4803008B100207CBD6D1CB542F1DB99
:105510000120F9E7F8ED00E02DE9F341054605F03B
:105520000C0601A93046FFF72FFD0746012F01D1D8
:10553000002400E001242046BDE8FC812DE9F34170
:10554000054629460420FFF765FF0D2601A93046D0
:10555000FFF71AFD07460E2600213046FFF714FD1F
:105560000746012F01D1002400E001242046BDE8B8
:10557000FC8170B504460D46164632462946204643
:1055800003F0D2FA70BD000070B504460D4605491F
:105590000020FFF73FFF29462046FFF7CFFF0646D2
:1055A000304670BD520000232DE9F04104460D46FF
:1055B00007490020FFF72EFFA007C00E05FA00F6EE
:1055C00031462046FFF7BAFF07463846BDE8F0816E
:1055D0005000002300B50120FCF74EF90020FCF735
:1055E0006DF9002000F040F8012000F043F800BD04
:1055F00010B5002000F038F80120FCF74FF90548FD
:105600000468012000F030F80120FCF747F920463B
:1056100010BD00000C0AFE4310B504462046FCF7FE
:105620004DF9002000F020F80120FCF737F90120A7
:1056300000F01AF80120FCF731F910BD02480068AB
:10564000401C014908607047E00000204CF22050E7
:105650000449C8814DF62810C8814FF4E9700880CC
:1056600070470000002005400149086070470000B5
:105670000808FE4301490860704700002808FE43FF
:1056800010B5034801680348034A1268904710BDEB
:105690000801002000A006400400002010B5FFF71C
:1056A000EFFF10BD10B5034841680348034A126874
:1056B000904710BD0801002000B006400400002003
:1056C00010B5FFF7EFFF10BD10B503488168034820
:1056D000034A1268904710BD0801002000C0064030
:1056E0000400002010B5FFF7EFFF10BD10B5034810
:1056F000C1680348034A1268904710BD08010020A2
:1057000000D006400400002010B5FFF7EFFF10BDE9
:1057100010B5034801690348034A1268904710BD59
:105720000801002000A00E400400002010B5FFF783
:10573000EFFF10BD10B5034841690348034A1268E2
:10574000904710BD0801002000B00E40040000206A
:1057500010B5FFF7EFFF10BD10B5044604B105E02A
:1057600040F22D1208A115A000F000FA4FF4E1302C
:105770002060002020716071A0710120E071002084
:105780002072607210BD00002E2E2F2E2E2F2E2E76
:105790002F2E2E2F2E2E2F646576696365732F4D65
:1057A0004B36344631322F647269766572732F66D8
:1057B000736C5F756172742E63000000636F6E66B8
:1057C0006967000070B505460626002406E00A4811
:1057D00050F82400A84200D102E0641CB442F6D381
:1057E00000BFB44200D204E0A52204A110A000F042
:1057F000BDF9204670BD0000A88E00002E2E2F2E71
:105800002E2F2E2E2F2E2E2F2E2E2F64657669638F
:1058100065732F4D4B36344631322F64726976658D
:1058200072732F66736C5F756172742E6300000073
:10583000696E7374616E6365203C2075617274419A
:1058400072726179436F756E7400000001460A79C7
:105850004B7942EA03200A7B40EA02408A7C40EA14
:10586000026070472DE9F04704460D46904605B1A9
:1058700004E0CC2255A162A000F078F9624884428D
:1058800001D108201AE06148844201D1082015E0C6
:105890005F48844201D1012010E05E48844201D17A
:1058A00001200BE05C48844201D1012006E05B4806
:1058B000844201D1012001E04FF0FF30A9798842F4
:1058C00000DB04E0CE2241A155A000F04FF94E4884
:1058D000844201D108201AE04C48844201D10820BA
:1058E00015E04B48844201D1012010E04948844230
:1058F00001D101200BE04848844201D1012006E09B
:105900004648844201D1012001E04FF0FF30E9799F
:10591000884200DB04E0CF222CA151A000F026F940
:105920002046FFF74FFF5E4951F820905D4901EB9B
:1059300019400168012202FA09F21143016000BF17
:10594000E07820F00C00E07028680001B8FBF0F06F
:1059500087B2207820F01F0040EA2720207067706F
:105960004FEA481029680901B0FBF1F0202101FB42
:1059700017001FFA80FAA07A6AF30400A072A078D8
:1059800020F01306287918B1287940F0100006435A
:10599000A6706979207861F345102070A879E074C9
:1059A000E8796075207C40F088002074607C40F0CD
:1059B000C0006074E678287A08B146F00806687A74
:1059C00008B146F00406E670BDE8F0872E2E2F2EB3
:1059D0002E2F2E2E2F2E2E2F2E2E2F6465766963BE
:1059E00065732F4D4B36344631322F6472697665BC
:1059F00072732F66736C5F756172742E63000000A2
:105A0000636F6E666967000000A0064000B0064044
:105A100000C0064000D0064000A00E4000B00E407E
:105A200046534C5F464541545552455F554152548B
:105A30005F4649464F5F53495A456E286261736518
:105A400029203E3D20636F6E6669672D3E7478465F
:105A500069666F57617465726D61726B000000005A
:105A600046534C5F464541545552455F554152544B
:105A70005F4649464F5F53495A456E2862617365D8
:105A800029203E3D20636F6E6669672D3E72784621
:105A900069666F57617465726D61726B000000001A
:105AA000C88E000000700440F0B505460E4617464B
:105AB00022E01BE02846FFF7C9FE044604F0080078
:105AC00010B140F2F130F0BD04F0040010B140F22A
:105AD000F230F8E704F0020010B140F2F330F2E7E0
:105AE00004F0010010B14FF47D70ECE7A87D0028B0
:105AF000E0D0E87906F8010B381EA7F10107D8D1EC
:105B000000BFE0E710B508E000BF037903F08003B1
:105B1000002BFAD011F8013BC371131EA2F1010250
:105B2000F2D110BD0FB4054B10B503A9044A029879
:105B300000F0CEF810BC5DF814FB00009D70000072
:105B4000F8000020490050EAC12018BF04204A0D87
:105B500018BF40F0010040F2FF72B2EB515F08BF86
:105B600040F00200012808BF0520704704460D469A
:105B7000164633462A46214602A0FCF78FF800BF9E
:105B800000BEFDE7415353455254204552524F52F7
:105B9000202220257320223A2066696C6520222568
:105BA0007322204C696E652022256422200A0000A1
:105BB00000487047040100202DE9F0414F1E00EB22
:105BC000C7010446D1E9000115461E4637F006021A
:105BD0000DD02A463346FAF786FE7F1E04EBC70334
:105BE000D3E90023FAF7D8FD37F00602F1D1022FEE
:105BF00025D0042F13D0062F18BFBDE8F0812A4608
:105C00003346FAF770FED4E90A23FAF7C5FD2A46AF
:105C10003346FAF768FED4E90823FAF7BDFD2A46B1
:105C20003346FAF760FED4E90623FAF7B5FD2A46B3
:105C30003346FAF758FED4E90423FAF7ADFD2A46B5
:105C40003346FAF750FED4E90223FAF7A5FD2A46B7
:105C50003346FAF748FED4E90023BDE8F041FAF7ED
:105C60009BBD00000022134610460149FAF7ADBE65
:105C70000000F03FFAF790BD00221346104611468F
:105C8000FAF7A3BE40F2013200204FF0E041FBF7EB
:105C900093B80000024A00201107FBF78DB80000FE
:105CA00001FDFFFF02E008C8121F08C1002AFAD157
:105CB00070477047002001E001C1121F002AFBD18C
:105CC000704700000149086070470000040100208F
:105CD0002DE9FF4F8DB00F460546002606E025282A
